{
  "contractName": "Dotties",
  "abi": [
    {
      "inputs": [],
      "stateMutability": "nonpayable",
      "type": "constructor"
    },
    {
      "anonymous": false,
      "inputs": [
        {
          "indexed": true,
          "internalType": "address",
          "name": "account",
          "type": "address"
        },
        {
          "indexed": true,
          "internalType": "address",
          "name": "operator",
          "type": "address"
        },
        {
          "indexed": false,
          "internalType": "bool",
          "name": "approved",
          "type": "bool"
        }
      ],
      "name": "ApprovalForAll",
      "type": "event"
    },
    {
      "anonymous": false,
      "inputs": [
        {
          "indexed": true,
          "internalType": "address",
          "name": "previousOwner",
          "type": "address"
        },
        {
          "indexed": true,
          "internalType": "address",
          "name": "newOwner",
          "type": "address"
        }
      ],
      "name": "OwnershipTransferred",
      "type": "event"
    },
    {
      "anonymous": false,
      "inputs": [
        {
          "indexed": true,
          "internalType": "address",
          "name": "operator",
          "type": "address"
        },
        {
          "indexed": true,
          "internalType": "address",
          "name": "from",
          "type": "address"
        },
        {
          "indexed": true,
          "internalType": "address",
          "name": "to",
          "type": "address"
        },
        {
          "indexed": false,
          "internalType": "uint256[]",
          "name": "ids",
          "type": "uint256[]"
        },
        {
          "indexed": false,
          "internalType": "uint256[]",
          "name": "values",
          "type": "uint256[]"
        }
      ],
      "name": "TransferBatch",
      "type": "event"
    },
    {
      "anonymous": false,
      "inputs": [
        {
          "indexed": true,
          "internalType": "address",
          "name": "operator",
          "type": "address"
        },
        {
          "indexed": true,
          "internalType": "address",
          "name": "from",
          "type": "address"
        },
        {
          "indexed": true,
          "internalType": "address",
          "name": "to",
          "type": "address"
        },
        {
          "indexed": false,
          "internalType": "uint256",
          "name": "id",
          "type": "uint256"
        },
        {
          "indexed": false,
          "internalType": "uint256",
          "name": "value",
          "type": "uint256"
        }
      ],
      "name": "TransferSingle",
      "type": "event"
    },
    {
      "anonymous": false,
      "inputs": [
        {
          "indexed": false,
          "internalType": "string",
          "name": "value",
          "type": "string"
        },
        {
          "indexed": true,
          "internalType": "uint256",
          "name": "id",
          "type": "uint256"
        }
      ],
      "name": "URI",
      "type": "event"
    },
    {
      "inputs": [
        {
          "internalType": "address",
          "name": "account",
          "type": "address"
        },
        {
          "internalType": "uint256",
          "name": "id",
          "type": "uint256"
        }
      ],
      "name": "balanceOf",
      "outputs": [
        {
          "internalType": "uint256",
          "name": "",
          "type": "uint256"
        }
      ],
      "stateMutability": "view",
      "type": "function"
    },
    {
      "inputs": [
        {
          "internalType": "address[]",
          "name": "accounts",
          "type": "address[]"
        },
        {
          "internalType": "uint256[]",
          "name": "ids",
          "type": "uint256[]"
        }
      ],
      "name": "balanceOfBatch",
      "outputs": [
        {
          "internalType": "uint256[]",
          "name": "",
          "type": "uint256[]"
        }
      ],
      "stateMutability": "view",
      "type": "function"
    },
    {
      "inputs": [
        {
          "internalType": "address",
          "name": "account",
          "type": "address"
        },
        {
          "internalType": "address",
          "name": "operator",
          "type": "address"
        }
      ],
      "name": "isApprovedForAll",
      "outputs": [
        {
          "internalType": "bool",
          "name": "",
          "type": "bool"
        }
      ],
      "stateMutability": "view",
      "type": "function"
    },
    {
      "inputs": [],
      "name": "owner",
      "outputs": [
        {
          "internalType": "address",
          "name": "",
          "type": "address"
        }
      ],
      "stateMutability": "view",
      "type": "function"
    },
    {
      "inputs": [],
      "name": "renounceOwnership",
      "outputs": [],
      "stateMutability": "nonpayable",
      "type": "function"
    },
    {
      "inputs": [
        {
          "internalType": "address",
          "name": "from",
          "type": "address"
        },
        {
          "internalType": "address",
          "name": "to",
          "type": "address"
        },
        {
          "internalType": "uint256[]",
          "name": "ids",
          "type": "uint256[]"
        },
        {
          "internalType": "uint256[]",
          "name": "amounts",
          "type": "uint256[]"
        },
        {
          "internalType": "bytes",
          "name": "data",
          "type": "bytes"
        }
      ],
      "name": "safeBatchTransferFrom",
      "outputs": [],
      "stateMutability": "nonpayable",
      "type": "function"
    },
    {
      "inputs": [
        {
          "internalType": "address",
          "name": "from",
          "type": "address"
        },
        {
          "internalType": "address",
          "name": "to",
          "type": "address"
        },
        {
          "internalType": "uint256",
          "name": "id",
          "type": "uint256"
        },
        {
          "internalType": "uint256",
          "name": "amount",
          "type": "uint256"
        },
        {
          "internalType": "bytes",
          "name": "data",
          "type": "bytes"
        }
      ],
      "name": "safeTransferFrom",
      "outputs": [],
      "stateMutability": "nonpayable",
      "type": "function"
    },
    {
      "inputs": [
        {
          "internalType": "address",
          "name": "operator",
          "type": "address"
        },
        {
          "internalType": "bool",
          "name": "approved",
          "type": "bool"
        }
      ],
      "name": "setApprovalForAll",
      "outputs": [],
      "stateMutability": "nonpayable",
      "type": "function"
    },
    {
      "inputs": [
        {
          "internalType": "bytes4",
          "name": "interfaceId",
          "type": "bytes4"
        }
      ],
      "name": "supportsInterface",
      "outputs": [
        {
          "internalType": "bool",
          "name": "",
          "type": "bool"
        }
      ],
      "stateMutability": "view",
      "type": "function"
    },
    {
      "inputs": [
        {
          "internalType": "address",
          "name": "newOwner",
          "type": "address"
        }
      ],
      "name": "transferOwnership",
      "outputs": [],
      "stateMutability": "nonpayable",
      "type": "function"
    },
    {
      "inputs": [
        {
          "internalType": "uint256",
          "name": "",
          "type": "uint256"
        }
      ],
      "name": "uri",
      "outputs": [
        {
          "internalType": "string",
          "name": "",
          "type": "string"
        }
      ],
      "stateMutability": "view",
      "type": "function"
    },
    {
      "inputs": [
        {
          "internalType": "uint256[]",
          "name": "ids",
          "type": "uint256[]"
        },
        {
          "internalType": "uint256[]",
          "name": "amounts",
          "type": "uint256[]"
        },
        {
          "internalType": "bytes",
          "name": "data",
          "type": "bytes"
        }
      ],
      "name": "myMintFunc",
      "outputs": [],
      "stateMutability": "nonpayable",
      "type": "function"
    }
  ],
  "bytecode": "0x60806040523480156200001157600080fd5b506040518060800160405280605c815260200162003111605c91396200003d816200006460201b60201c565b506200005e620000526200008060201b60201c565b6200008860201b60201c565b62000263565b80600290805190602001906200007c9291906200014e565b5050565b600033905090565b6000600360009054906101000a900473ffffffffffffffffffffffffffffffffffffffff16905081600360006101000a81548173ffffffffffffffffffffffffffffffffffffffff021916908373ffffffffffffffffffffffffffffffffffffffff1602179055508173ffffffffffffffffffffffffffffffffffffffff168173ffffffffffffffffffffffffffffffffffffffff167f8be0079c531659141344cd1fd0a4f28419497f9722a3daafe3b4186f6b6457e060405160405180910390a35050565b8280546200015c90620001fe565b90600052602060002090601f016020900481019282620001805760008555620001cc565b82601f106200019b57805160ff1916838001178555620001cc565b82800160010185558215620001cc579182015b82811115620001cb578251825591602001919060010190620001ae565b5b509050620001db9190620001df565b5090565b5b80821115620001fa576000816000905550600101620001e0565b5090565b600060028204905060018216806200021757607f821691505b602082108114156200022e576200022d62000234565b5b50919050565b7f4e487b7100000000000000000000000000000000000000000000000000000000600052602260045260246000fd5b612e9e80620002736000396000f3fe608060405234801561001057600080fd5b50600436106100b35760003560e01c80638da5cb5b116100715780638da5cb5b1461019e578063a22cb465146101bc578063d7b869a6146101d8578063e985e9c5146101f4578063f242432a14610224578063f2fde38b14610240576100b3565b8062fdd58e146100b857806301ffc9a7146100e85780630e89341c146101185780632eb2c2d6146101485780634e1273f414610164578063715018a614610194575b600080fd5b6100d260048036038101906100cd9190611df9565b61025c565b6040516100df91906125b1565b60405180910390f35b61010260048036038101906100fd9190611f38565b610325565b60405161010f91906123d4565b60405180910390f35b610132600480360381019061012d9190611f8a565b610407565b60405161013f91906123ef565b60405180910390f35b610162600480360381019061015d9190611c6f565b61049b565b005b61017e60048036038101906101799190611e35565b61053c565b60405161018b919061237b565b60405180910390f35b61019c6106ed565b005b6101a6610775565b6040516101b3919061229e565b60405180910390f35b6101d660048036038101906101d19190611dbd565b61079f565b005b6101f260048036038101906101ed9190611ea1565b610920565b005b61020e60048036038101906102099190611c33565b6109ad565b60405161021b91906123d4565b60405180910390f35b61023e60048036038101906102399190611d2e565b610a41565b005b61025a60048036038101906102559190611c0a565b610ae2565b005b60008073ffffffffffffffffffffffffffffffffffffffff168373ffffffffffffffffffffffffffffffffffffffff1614156102cd576040517f08c379a00000000000000000000000000000000000000000000000000000000081526004016102c490612451565b60405180910390fd5b60008083815260200190815260200160002060008473ffffffffffffffffffffffffffffffffffffffff1673ffffffffffffffffffffffffffffffffffffffff16815260200190815260200160002054905092915050565b60007fd9b67a26000000000000000000000000000000000000000000000000000000007bffffffffffffffffffffffffffffffffffffffffffffffffffffffff1916827bffffffffffffffffffffffffffffffffffffffffffffffffffffffff191614806103f057507f0e89341c000000000000000000000000000000000000000000000000000000007bffffffffffffffffffffffffffffffffffffffffffffffffffffffff1916827bffffffffffffffffffffffffffffffffffffffffffffffffffffffff1916145b8061040057506103ff82610bda565b5b9050919050565b60606002805461041690612820565b80601f016020809104026020016040519081016040528092919081815260200182805461044290612820565b801561048f5780601f106104645761010080835404028352916020019161048f565b820191906000526020600020905b81548152906001019060200180831161047257829003601f168201915b50505050509050919050565b6104a3610c44565b73ffffffffffffffffffffffffffffffffffffffff168573ffffffffffffffffffffffffffffffffffffffff1614806104e957506104e8856104e3610c44565b6109ad565b5b610528576040517f08c379a000000000000000000000000000000000000000000000000000000000815260040161051f906124d1565b60405180910390fd5b6105358585858585610c4c565b5050505050565b60608151835114610582576040517f08c379a000000000000000000000000000000000000000000000000000000000815260040161057990612551565b60405180910390fd5b6000835167ffffffffffffffff8111156105c5577f4e487b7100000000000000000000000000000000000000000000000000000000600052604160045260246000fd5b6040519080825280602002602001820160405280156105f35781602001602082028036833780820191505090505b50905060005b84518110156106e25761068c85828151811061063e577f4e487b7100000000000000000000000000000000000000000000000000000000600052603260045260246000fd5b602002602001015185838151811061067f577f4e487b7100000000000000000000000000000000000000000000000000000000600052603260045260246000fd5b602002602001015161025c565b8282815181106106c5577f4e487b7100000000000000000000000000000000000000000000000000000000600052603260045260246000fd5b602002602001018181525050806106db90612883565b90506105f9565b508091505092915050565b6106f5610c44565b73ffffffffffffffffffffffffffffffffffffffff16610713610775565b73ffffffffffffffffffffffffffffffffffffffff1614610769576040517f08c379a000000000000000000000000000000000000000000000000000000000815260040161076090612511565b60405180910390fd5b6107736000610fac565b565b6000600360009054906101000a900473ffffffffffffffffffffffffffffffffffffffff16905090565b8173ffffffffffffffffffffffffffffffffffffffff166107be610c44565b73ffffffffffffffffffffffffffffffffffffffff161415610815576040517f08c379a000000000000000000000000000000000000000000000000000000000815260040161080c90612531565b60405180910390fd5b8060016000610822610c44565b73ffffffffffffffffffffffffffffffffffffffff1673ffffffffffffffffffffffffffffffffffffffff16815260200190815260200160002060008473ffffffffffffffffffffffffffffffffffffffff1673ffffffffffffffffffffffffffffffffffffffff16815260200190815260200160002060006101000a81548160ff0219169083151502179055508173ffffffffffffffffffffffffffffffffffffffff166108cf610c44565b73ffffffffffffffffffffffffffffffffffffffff167f17307eab39ab6107e8899845ad3d59bd9653f200f220920489ca2b5937696c318360405161091491906123d4565b60405180910390a35050565b610928610c44565b73ffffffffffffffffffffffffffffffffffffffff16610946610775565b73ffffffffffffffffffffffffffffffffffffffff161461099c576040517f08c379a000000000000000000000000000000000000000000000000000000000815260040161099390612511565b60405180910390fd5b6109a833848484611072565b505050565b6000600160008473ffffffffffffffffffffffffffffffffffffffff1673ffffffffffffffffffffffffffffffffffffffff16815260200190815260200160002060008373ffffffffffffffffffffffffffffffffffffffff1673ffffffffffffffffffffffffffffffffffffffff16815260200190815260200160002060009054906101000a900460ff16905092915050565b610a49610c44565b73ffffffffffffffffffffffffffffffffffffffff168573ffffffffffffffffffffffffffffffffffffffff161480610a8f5750610a8e85610a89610c44565b6109ad565b5b610ace576040517f08c379a0000000000000000000000000000000000000000000000000000000008152600401610ac590612491565b60405180910390fd5b610adb85858585856112dc565b5050505050565b610aea610c44565b73ffffffffffffffffffffffffffffffffffffffff16610b08610775565b73ffffffffffffffffffffffffffffffffffffffff1614610b5e576040517f08c379a0000000000000000000000000000000000000000000000000000000008152600401610b5590612511565b60405180910390fd5b600073ffffffffffffffffffffffffffffffffffffffff168173ffffffffffffffffffffffffffffffffffffffff161415610bce576040517f08c379a0000000000000000000000000000000000000000000000000000000008152600401610bc590612471565b60405180910390fd5b610bd781610fac565b50565b60007f01ffc9a7000000000000000000000000000000000000000000000000000000007bffffffffffffffffffffffffffffffffffffffffffffffffffffffff1916827bffffffffffffffffffffffffffffffffffffffffffffffffffffffff1916149050919050565b600033905090565b8151835114610c90576040517f08c379a0000000000000000000000000000000000000000000000000000000008152600401610c8790612571565b60405180910390fd5b600073ffffffffffffffffffffffffffffffffffffffff168473ffffffffffffffffffffffffffffffffffffffff161415610d00576040517f08c379a0000000000000000000000000000000000000000000000000000000008152600401610cf7906124b1565b60405180910390fd5b6000610d0a610c44565b9050610d1a81878787878761155e565b60005b8451811015610f17576000858281518110610d61577f4e487b7100000000000000000000000000000000000000000000000000000000600052603260045260246000fd5b602002602001015190506000858381518110610da6577f4e487b7100000000000000000000000000000000000000000000000000000000600052603260045260246000fd5b60200260200101519050600080600084815260200190815260200160002060008b73ffffffffffffffffffffffffffffffffffffffff1673ffffffffffffffffffffffffffffffffffffffff16815260200190815260200160002054905081811015610e47576040517f08c379a0000000000000000000000000000000000000000000000000000000008152600401610e3e906124f1565b60405180910390fd5b81810360008085815260200190815260200160002060008c73ffffffffffffffffffffffffffffffffffffffff1673ffffffffffffffffffffffffffffffffffffffff168152602001908152602001600020819055508160008085815260200190815260200160002060008b73ffffffffffffffffffffffffffffffffffffffff1673ffffffffffffffffffffffffffffffffffffffff1681526020019081526020016000206000828254610efc9190612714565b9250508190555050505080610f1090612883565b9050610d1d565b508473ffffffffffffffffffffffffffffffffffffffff168673ffffffffffffffffffffffffffffffffffffffff168273ffffffffffffffffffffffffffffffffffffffff167f4a39dc06d4c0dbc64b70af90fd698a233a518aa5d07e595d983b8c0526c8f7fb8787604051610f8e92919061239d565b60405180910390a4610fa4818787878787611566565b505050505050565b6000600360009054906101000a900473ffffffffffffffffffffffffffffffffffffffff16905081600360006101000a81548173ffffffffffffffffffffffffffffffffffffffff021916908373ffffffffffffffffffffffffffffffffffffffff1602179055508173ffffffffffffffffffffffffffffffffffffffff168173ffffffffffffffffffffffffffffffffffffffff167f8be0079c531659141344cd1fd0a4f28419497f9722a3daafe3b4186f6b6457e060405160405180910390a35050565b600073ffffffffffffffffffffffffffffffffffffffff168473ffffffffffffffffffffffffffffffffffffffff1614156110e2576040517f08c379a00000000000000000000000000000000000000000000000000000000081526004016110d990612591565b60405180910390fd5b8151835114611126576040517f08c379a000000000000000000000000000000000000000000000000000000000815260040161111d90612571565b60405180910390fd5b6000611130610c44565b90506111418160008787878761155e565b60005b845181101561124657838181518110611186577f4e487b7100000000000000000000000000000000000000000000000000000000600052603260045260246000fd5b60200260200101516000808784815181106111ca577f4e487b7100000000000000000000000000000000000000000000000000000000600052603260045260246000fd5b6020026020010151815260200190815260200160002060008873ffffffffffffffffffffffffffffffffffffffff1673ffffffffffffffffffffffffffffffffffffffff168152602001908152602001600020600082825461122c9190612714565b92505081905550808061123e90612883565b915050611144565b508473ffffffffffffffffffffffffffffffffffffffff16600073ffffffffffffffffffffffffffffffffffffffff168273ffffffffffffffffffffffffffffffffffffffff167f4a39dc06d4c0dbc64b70af90fd698a233a518aa5d07e595d983b8c0526c8f7fb87876040516112be92919061239d565b60405180910390a46112d581600087878787611566565b5050505050565b600073ffffffffffffffffffffffffffffffffffffffff168473ffffffffffffffffffffffffffffffffffffffff16141561134c576040517f08c379a0000000000000000000000000000000000000000000000000000000008152600401611343906124b1565b60405180910390fd5b6000611356610c44565b90506113768187876113678861174d565b6113708861174d565b8761155e565b600080600086815260200190815260200160002060008873ffffffffffffffffffffffffffffffffffffffff1673ffffffffffffffffffffffffffffffffffffffff1681526020019081526020016000205490508381101561140d576040517f08c379a0000000000000000000000000000000000000000000000000000000008152600401611404906124f1565b60405180910390fd5b83810360008087815260200190815260200160002060008973ffffffffffffffffffffffffffffffffffffffff1673ffffffffffffffffffffffffffffffffffffffff168152602001908152602001600020819055508360008087815260200190815260200160002060008873ffffffffffffffffffffffffffffffffffffffff1673ffffffffffffffffffffffffffffffffffffffff16815260200190815260200160002060008282546114c29190612714565b925050819055508573ffffffffffffffffffffffffffffffffffffffff168773ffffffffffffffffffffffffffffffffffffffff168373ffffffffffffffffffffffffffffffffffffffff167fc3d58168c5ae7397731d063d5bbf3d657854427343f4c083240f7aacaa2d0f62888860405161153f9291906125cc565b60405180910390a4611555828888888888611813565b50505050505050565b505050505050565b6115858473ffffffffffffffffffffffffffffffffffffffff166119fa565b15611745578373ffffffffffffffffffffffffffffffffffffffff1663bc197c8187878686866040518663ffffffff1660e01b81526004016115cb9594939291906122b9565b602060405180830381600087803b1580156115e557600080fd5b505af192505050801561161657506040513d601f19601f820116820180604052508101906116139190611f61565b60015b6116bc57611622612959565b806308c379a0141561167f5750611637612d76565b806116425750611681565b806040517f08c379a000000000000000000000000000000000000000000000000000000000815260040161167691906123ef565b60405180910390fd5b505b6040517f08c379a00000000000000000000000000000000000000000000000000000000081526004016116b390612411565b60405180910390fd5b63bc197c8160e01b7bffffffffffffffffffffffffffffffffffffffffffffffffffffffff1916817bffffffffffffffffffffffffffffffffffffffffffffffffffffffff191614611743576040517f08c379a000000000000000000000000000000000000000000000000000000000815260040161173a90612431565b60405180910390fd5b505b505050505050565b60606000600167ffffffffffffffff811115611792577f4e487b7100000000000000000000000000000000000000000000000000000000600052604160045260246000fd5b6040519080825280602002602001820160405280156117c05781602001602082028036833780820191505090505b50905082816000815181106117fe577f4e487b7100000000000000000000000000000000000000000000000000000000600052603260045260246000fd5b60200260200101818152505080915050919050565b6118328473ffffffffffffffffffffffffffffffffffffffff166119fa565b156119f2578373ffffffffffffffffffffffffffffffffffffffff1663f23a6e6187878686866040518663ffffffff1660e01b8152600401611878959493929190612321565b602060405180830381600087803b15801561189257600080fd5b505af19250505080156118c357506040513d601f19601f820116820180604052508101906118c09190611f61565b60015b611969576118cf612959565b806308c379a0141561192c57506118e4612d76565b806118ef575061192e565b806040517f08c379a000000000000000000000000000000000000000000000000000000000815260040161192391906123ef565b60405180910390fd5b505b6040517f08c379a000000000000000000000000000000000000000000000000000000000815260040161196090612411565b60405180910390fd5b63f23a6e6160e01b7bffffffffffffffffffffffffffffffffffffffffffffffffffffffff1916817bffffffffffffffffffffffffffffffffffffffffffffffffffffffff1916146119f0576040517f08c379a00000000000000000000000000000000000000000000000000000000081526004016119e790612431565b60405180910390fd5b505b505050505050565b600080823b905060008111915050919050565b6000611a20611a1b8461261a565b6125f5565b90508083825260208201905082856020860282011115611a3f57600080fd5b60005b85811015611a6f5781611a558882611b23565b845260208401935060208301925050600181019050611a42565b5050509392505050565b6000611a8c611a8784612646565b6125f5565b90508083825260208201905082856020860282011115611aab57600080fd5b60005b85811015611adb5781611ac18882611bf5565b845260208401935060208301925050600181019050611aae565b5050509392505050565b6000611af8611af384612672565b6125f5565b905082815260208101848484011115611b1057600080fd5b611b1b8482856127de565b509392505050565b600081359050611b3281612e0c565b92915050565b600082601f830112611b4957600080fd5b8135611b59848260208601611a0d565b91505092915050565b600082601f830112611b7357600080fd5b8135611b83848260208601611a79565b91505092915050565b600081359050611b9b81612e23565b92915050565b600081359050611bb081612e3a565b92915050565b600081519050611bc581612e3a565b92915050565b600082601f830112611bdc57600080fd5b8135611bec848260208601611ae5565b91505092915050565b600081359050611c0481612e51565b92915050565b600060208284031215611c1c57600080fd5b6000611c2a84828501611b23565b91505092915050565b60008060408385031215611c4657600080fd5b6000611c5485828601611b23565b9250506020611c6585828601611b23565b9150509250929050565b600080600080600060a08688031215611c8757600080fd5b6000611c9588828901611b23565b9550506020611ca688828901611b23565b945050604086013567ffffffffffffffff811115611cc357600080fd5b611ccf88828901611b62565b935050606086013567ffffffffffffffff811115611cec57600080fd5b611cf888828901611b62565b925050608086013567ffffffffffffffff811115611d1557600080fd5b611d2188828901611bcb565b9150509295509295909350565b600080600080600060a08688031215611d4657600080fd5b6000611d5488828901611b23565b9550506020611d6588828901611b23565b9450506040611d7688828901611bf5565b9350506060611d8788828901611bf5565b925050608086013567ffffffffffffffff811115611da457600080fd5b611db088828901611bcb565b9150509295509295909350565b60008060408385031215611dd057600080fd5b6000611dde85828601611b23565b9250506020611def85828601611b8c565b9150509250929050565b60008060408385031215611e0c57600080fd5b6000611e1a85828601611b23565b9250506020611e2b85828601611bf5565b9150509250929050565b60008060408385031215611e4857600080fd5b600083013567ffffffffffffffff811115611e6257600080fd5b611e6e85828601611b38565b925050602083013567ffffffffffffffff811115611e8b57600080fd5b611e9785828601611b62565b9150509250929050565b600080600060608486031215611eb657600080fd5b600084013567ffffffffffffffff811115611ed057600080fd5b611edc86828701611b62565b935050602084013567ffffffffffffffff811115611ef957600080fd5b611f0586828701611b62565b925050604084013567ffffffffffffffff811115611f2257600080fd5b611f2e86828701611bcb565b9150509250925092565b600060208284031215611f4a57600080fd5b6000611f5884828501611ba1565b91505092915050565b600060208284031215611f7357600080fd5b6000611f8184828501611bb6565b91505092915050565b600060208284031215611f9c57600080fd5b6000611faa84828501611bf5565b91505092915050565b6000611fbf8383612280565b60208301905092915050565b611fd48161276a565b82525050565b6000611fe5826126b3565b611fef81856126e1565b9350611ffa836126a3565b8060005b8381101561202b5781516120128882611fb3565b975061201d836126d4565b925050600181019050611ffe565b5085935050505092915050565b6120418161277c565b82525050565b6000612052826126be565b61205c81856126f2565b935061206c8185602086016127ed565b6120758161297b565b840191505092915050565b600061208b826126c9565b6120958185612703565b93506120a58185602086016127ed565b6120ae8161297b565b840191505092915050565b60006120c6603483612703565b91506120d182612999565b604082019050919050565b60006120e9602883612703565b91506120f4826129e8565b604082019050919050565b600061210c602b83612703565b915061211782612a37565b604082019050919050565b600061212f602683612703565b915061213a82612a86565b604082019050919050565b6000612152602983612703565b915061215d82612ad5565b604082019050919050565b6000612175602583612703565b915061218082612b24565b604082019050919050565b6000612198603283612703565b91506121a382612b73565b604082019050919050565b60006121bb602a83612703565b91506121c682612bc2565b604082019050919050565b60006121de602083612703565b91506121e982612c11565b602082019050919050565b6000612201602983612703565b915061220c82612c3a565b604082019050919050565b6000612224602983612703565b915061222f82612c89565b604082019050919050565b6000612247602883612703565b915061225282612cd8565b604082019050919050565b600061226a602183612703565b915061227582612d27565b604082019050919050565b612289816127d4565b82525050565b612298816127d4565b82525050565b60006020820190506122b36000830184611fcb565b92915050565b600060a0820190506122ce6000830188611fcb565b6122db6020830187611fcb565b81810360408301526122ed8186611fda565b905081810360608301526123018185611fda565b905081810360808301526123158184612047565b90509695505050505050565b600060a0820190506123366000830188611fcb565b6123436020830187611fcb565b612350604083018661228f565b61235d606083018561228f565b818103608083015261236f8184612047565b90509695505050505050565b600060208201905081810360008301526123958184611fda565b905092915050565b600060408201905081810360008301526123b78185611fda565b905081810360208301526123cb8184611fda565b90509392505050565b60006020820190506123e96000830184612038565b92915050565b600060208201905081810360008301526124098184612080565b905092915050565b6000602082019050818103600083015261242a816120b9565b9050919050565b6000602082019050818103600083015261244a816120dc565b9050919050565b6000602082019050818103600083015261246a816120ff565b9050919050565b6000602082019050818103600083015261248a81612122565b9050919050565b600060208201905081810360008301526124aa81612145565b9050919050565b600060208201905081810360008301526124ca81612168565b9050919050565b600060208201905081810360008301526124ea8161218b565b9050919050565b6000602082019050818103600083015261250a816121ae565b9050919050565b6000602082019050818103600083015261252a816121d1565b9050919050565b6000602082019050818103600083015261254a816121f4565b9050919050565b6000602082019050818103600083015261256a81612217565b9050919050565b6000602082019050818103600083015261258a8161223a565b9050919050565b600060208201905081810360008301526125aa8161225d565b9050919050565b60006020820190506125c6600083018461228f565b92915050565b60006040820190506125e1600083018561228f565b6125ee602083018461228f565b9392505050565b60006125ff612610565b905061260b8282612852565b919050565b6000604051905090565b600067ffffffffffffffff8211156126355761263461292a565b5b602082029050602081019050919050565b600067ffffffffffffffff8211156126615761266061292a565b5b602082029050602081019050919050565b600067ffffffffffffffff82111561268d5761268c61292a565b5b6126968261297b565b9050602081019050919050565b6000819050602082019050919050565b600081519050919050565b600081519050919050565b600081519050919050565b6000602082019050919050565b600082825260208201905092915050565b600082825260208201905092915050565b600082825260208201905092915050565b600061271f826127d4565b915061272a836127d4565b9250827fffffffffffffffffffffffffffffffffffffffffffffffffffffffffffffffff0382111561275f5761275e6128cc565b5b828201905092915050565b6000612775826127b4565b9050919050565b60008115159050919050565b60007fffffffff0000000000000000000000000000000000000000000000000000000082169050919050565b600073ffffffffffffffffffffffffffffffffffffffff82169050919050565b6000819050919050565b82818337600083830152505050565b60005b8381101561280b5780820151818401526020810190506127f0565b8381111561281a576000848401525b50505050565b6000600282049050600182168061283857607f821691505b6020821081141561284c5761284b6128fb565b5b50919050565b61285b8261297b565b810181811067ffffffffffffffff8211171561287a5761287961292a565b5b80604052505050565b600061288e826127d4565b91507fffffffffffffffffffffffffffffffffffffffffffffffffffffffffffffffff8214156128c1576128c06128cc565b5b600182019050919050565b7f4e487b7100000000000000000000000000000000000000000000000000000000600052601160045260246000fd5b7f4e487b7100000000000000000000000000000000000000000000000000000000600052602260045260246000fd5b7f4e487b7100000000000000000000000000000000000000000000000000000000600052604160045260246000fd5b600060033d11156129785760046000803e61297560005161298c565b90505b90565b6000601f19601f8301169050919050565b60008160e01c9050919050565b7f455243313135353a207472616e7366657220746f206e6f6e204552433131353560008201527f526563656976657220696d706c656d656e746572000000000000000000000000602082015250565b7f455243313135353a204552433131353552656365697665722072656a6563746560008201527f6420746f6b656e73000000000000000000000000000000000000000000000000602082015250565b7f455243313135353a2062616c616e636520717565727920666f7220746865207a60008201527f65726f2061646472657373000000000000000000000000000000000000000000602082015250565b7f4f776e61626c653a206e6577206f776e657220697320746865207a65726f206160008201527f6464726573730000000000000000000000000000000000000000000000000000602082015250565b7f455243313135353a2063616c6c6572206973206e6f74206f776e6572206e6f7260008201527f20617070726f7665640000000000000000000000000000000000000000000000602082015250565b7f455243313135353a207472616e7366657220746f20746865207a65726f20616460008201527f6472657373000000000000000000000000000000000000000000000000000000602082015250565b7f455243313135353a207472616e736665722063616c6c6572206973206e6f742060008201527f6f776e6572206e6f7220617070726f7665640000000000000000000000000000602082015250565b7f455243313135353a20696e73756666696369656e742062616c616e636520666f60008201527f72207472616e7366657200000000000000000000000000000000000000000000602082015250565b7f4f776e61626c653a2063616c6c6572206973206e6f7420746865206f776e6572600082015250565b7f455243313135353a2073657474696e6720617070726f76616c2073746174757360008201527f20666f722073656c660000000000000000000000000000000000000000000000602082015250565b7f455243313135353a206163636f756e747320616e6420696473206c656e67746860008201527f206d69736d617463680000000000000000000000000000000000000000000000602082015250565b7f455243313135353a2069647320616e6420616d6f756e7473206c656e6774682060008201527f6d69736d61746368000000000000000000000000000000000000000000000000602082015250565b7f455243313135353a206d696e7420746f20746865207a65726f2061646472657360008201527f7300000000000000000000000000000000000000000000000000000000000000602082015250565b600060443d1015612d8657612e09565b612d8e612610565b60043d036004823e80513d602482011167ffffffffffffffff82111715612db6575050612e09565b808201805167ffffffffffffffff811115612dd45750505050612e09565b80602083010160043d038501811115612df1575050505050612e09565b612e0082602001850186612852565b82955050505050505b90565b612e158161276a565b8114612e2057600080fd5b50565b612e2c8161277c565b8114612e3757600080fd5b50565b612e4381612788565b8114612e4e57600080fd5b50565b612e5a816127d4565b8114612e6557600080fd5b5056fea26469706673582212208e086d4ded96ca15d0d3a8e2490834da4d3392838db67f0e6ea501aa447106b464736f6c6343000804003368747470733a2f2f697066732e696e667572612e696f2f697066732f516d633455653845517763696f57524e44646d7a6f767750764c757168776757787842696e656d42726f436a45672f6d657461646174612f7b317d2e6a736f6e",
  "immutableReferences": {},
  "source": "// contracts/Dotty.sol\n// SPDX-License-Identifier: MIT\npragma solidity ^0.8.4;\n\nimport \"hardhat/console.sol\";\nimport \"@openzeppelin/contracts/token/ERC1155/ERC1155.sol\";\nimport \"@openzeppelin/contracts/access/Ownable.sol\";\n\ncontract Dotties is ERC1155, Ownable {\n\n    constructor() public ERC1155(\"https://ipfs.infura.io/ipfs/Qmc4Ue8EQwcioWRNDdmzovwPvLuqhwgWxxBinemBroCjEg/metadata/{1}.json\") {}\n\n    function myMintFunc(uint256[] memory ids, uint256[] memory amounts, bytes memory data) public onlyOwner {\n      _mintBatch(msg.sender, ids, amounts, data);\n    }\n\n}\n",
  "sourcePath": "/Users/mochini/Workspace/dotty/src/contracts/Dotties.sol",
  "compiler": {
    "name": "solc",
    "version": "0.8.4+commit.c7e474f2.Emscripten.clang"
  },
  "schemaVersion": "3.4.3",
  "updatedAt": "2021-11-24T01:18:29.256Z",
  "devdoc": {
    "kind": "dev",
    "methods": {
      "balanceOf(address,uint256)": {
        "details": "See {IERC1155-balanceOf}. Requirements: - `account` cannot be the zero address."
      },
      "balanceOfBatch(address[],uint256[])": {
        "details": "See {IERC1155-balanceOfBatch}. Requirements: - `accounts` and `ids` must have the same length."
      },
      "isApprovedForAll(address,address)": {
        "details": "See {IERC1155-isApprovedForAll}."
      },
      "owner()": {
        "details": "Returns the address of the current owner."
      },
      "renounceOwnership()": {
        "details": "Leaves the contract without owner. It will not be possible to call `onlyOwner` functions anymore. Can only be called by the current owner. NOTE: Renouncing ownership will leave the contract without an owner, thereby removing any functionality that is only available to the owner."
      },
      "safeBatchTransferFrom(address,address,uint256[],uint256[],bytes)": {
        "details": "See {IERC1155-safeBatchTransferFrom}."
      },
      "safeTransferFrom(address,address,uint256,uint256,bytes)": {
        "details": "See {IERC1155-safeTransferFrom}."
      },
      "setApprovalForAll(address,bool)": {
        "details": "See {IERC1155-setApprovalForAll}."
      },
      "supportsInterface(bytes4)": {
        "details": "See {IERC165-supportsInterface}."
      },
      "transferOwnership(address)": {
        "details": "Transfers ownership of the contract to a new account (`newOwner`). Can only be called by the current owner."
      },
      "uri(uint256)": {
        "details": "See {IERC1155MetadataURI-uri}. This implementation returns the same URI for *all* token types. It relies on the token type ID substitution mechanism https://eips.ethereum.org/EIPS/eip-1155#metadata[defined in the EIP]. Clients calling this function must replace the `\\{id\\}` substring with the actual token type ID."
      }
    },
    "version": 1
  },
  "userdoc": {
    "kind": "user",
    "methods": {},
    "version": 1
  }
}